{
  "_format": "hh-sol-artifact-1",
  "contractName": "CourseCreate",
  "sourceName": "contracts/CourseCreate.sol",
  "abi": [
    {
      "inputs": [
        {
          "internalType": "contract ERC20",
          "name": "token_",
          "type": "address"
        },
        {
          "internalType": "string",
          "name": "title",
          "type": "string"
        },
        {
          "internalType": "string",
          "name": "content",
          "type": "string"
        },
        {
          "internalType": "string",
          "name": "cType",
          "type": "string"
        },
        {
          "internalType": "string",
          "name": "classRoomType",
          "type": "string"
        },
        {
          "internalType": "string",
          "name": "cover",
          "type": "string"
        },
        {
          "internalType": "uint256",
          "name": "startTime",
          "type": "uint256"
        },
        {
          "internalType": "uint256",
          "name": "endTime",
          "type": "uint256"
        },
        {
          "internalType": "uint256",
          "name": "canRedeemAfterStart",
          "type": "uint256"
        },
        {
          "internalType": "address",
          "name": "admin",
          "type": "address"
        },
        {
          "internalType": "uint256",
          "name": "cost",
          "type": "uint256"
        }
      ],
      "stateMutability": "nonpayable",
      "type": "constructor"
    },
    {
      "inputs": [],
      "name": "getCourseData",
      "outputs": [
        {
          "internalType": "string",
          "name": "title",
          "type": "string"
        },
        {
          "internalType": "string",
          "name": "content",
          "type": "string"
        },
        {
          "internalType": "string",
          "name": "cType",
          "type": "string"
        },
        {
          "internalType": "string",
          "name": "classRoomType",
          "type": "string"
        },
        {
          "internalType": "string",
          "name": "cover",
          "type": "string"
        },
        {
          "internalType": "uint256",
          "name": "startTime",
          "type": "uint256"
        },
        {
          "internalType": "uint256",
          "name": "endTime",
          "type": "uint256"
        },
        {
          "internalType": "uint256",
          "name": "canRedeemAfterStart",
          "type": "uint256"
        },
        {
          "internalType": "address",
          "name": "host",
          "type": "address"
        },
        {
          "internalType": "address",
          "name": "admin",
          "type": "address"
        },
        {
          "internalType": "uint256",
          "name": "cost",
          "type": "uint256"
        }
      ],
      "stateMutability": "view",
      "type": "function"
    },
    {
      "inputs": [
        {
          "internalType": "uint256",
          "name": "amountToLock",
          "type": "uint256"
        },
        {
          "internalType": "string",
          "name": "addressName",
          "type": "string"
        }
      ],
      "name": "lock",
      "outputs": [],
      "stateMutability": "nonpayable",
      "type": "function"
    },
    {
      "inputs": [],
      "name": "refundBySelf",
      "outputs": [],
      "stateMutability": "nonpayable",
      "type": "function"
    },
    {
      "inputs": [
        {
          "internalType": "address",
          "name": "to",
          "type": "address"
        }
      ],
      "name": "refundTo",
      "outputs": [],
      "stateMutability": "nonpayable",
      "type": "function"
    },
    {
      "inputs": [],
      "name": "rightQuery",
      "outputs": [
        {
          "internalType": "bool",
          "name": "right",
          "type": "bool"
        }
      ],
      "stateMutability": "view",
      "type": "function"
    },
    {
      "inputs": [],
      "name": "setIsDiscard",
      "outputs": [],
      "stateMutability": "nonpayable",
      "type": "function"
    },
    {
      "inputs": [],
      "name": "setIsNormalEnd",
      "outputs": [],
      "stateMutability": "nonpayable",
      "type": "function"
    },
    {
      "inputs": [],
      "name": "token",
      "outputs": [
        {
          "internalType": "contract ERC20",
          "name": "",
          "type": "address"
        }
      ],
      "stateMutability": "view",
      "type": "function"
    },
    {
      "inputs": [],
      "name": "unlock",
      "outputs": [],
      "stateMutability": "nonpayable",
      "type": "function"
    }
  ],
  "bytecode": "0x60a06040523480156200001157600080fd5b506040516200303638038062003036833981810160405281019062000037919062000429565b600073ffffffffffffffffffffffffffffffffffffffff168273ffffffffffffffffffffffffffffffffffffffff161415620000aa576040517f08c379a0000000000000000000000000000000000000000000000000000000008152600401620000a190620005d4565b60405180910390fd5b8a73ffffffffffffffffffffffffffffffffffffffff1660808173ffffffffffffffffffffffffffffffffffffffff1660601b815250506040518061016001604052808b81526020018a81526020018981526020018881526020018781526020018681526020018581526020018481526020013373ffffffffffffffffffffffffffffffffffffffff1681526020018373ffffffffffffffffffffffffffffffffffffffff1681526020018281525060008082015181600001908051906020019062000178929190620002c2565b50602082015181600101908051906020019062000197929190620002c2565b506040820151816002019080519060200190620001b6929190620002c2565b506060820151816003019080519060200190620001d5929190620002c2565b506080820151816004019080519060200190620001f4929190620002c2565b5060a0820151816005015560c0820151816006015560e082015181600701556101008201518160080160006101000a81548173ffffffffffffffffffffffffffffffffffffffff021916908373ffffffffffffffffffffffffffffffffffffffff1602179055506101208201518160090160006101000a81548173ffffffffffffffffffffffffffffffffffffffff021916908373ffffffffffffffffffffffffffffffffffffffff16021790555061014082015181600a0155905050505050505050505050505062000840565b828054620002d090620006ee565b90600052602060002090601f016020900481019282620002f4576000855562000340565b82601f106200030f57805160ff191683800117855562000340565b8280016001018555821562000340579182015b828111156200033f57825182559160200191906001019062000322565b5b5090506200034f919062000353565b5090565b5b808211156200036e57600081600090555060010162000354565b5090565b60006200038962000383846200061f565b620005f6565b905082815260208101848484011115620003a257600080fd5b620003af848285620006b8565b509392505050565b600081519050620003c881620007f2565b92915050565b600081519050620003df816200080c565b92915050565b600082601f830112620003f757600080fd5b81516200040984826020860162000372565b91505092915050565b600081519050620004238162000826565b92915050565b60008060008060008060008060008060006101608c8e0312156200044c57600080fd5b60006200045c8e828f01620003ce565b9b505060208c015167ffffffffffffffff8111156200047a57600080fd5b620004888e828f01620003e5565b9a505060408c015167ffffffffffffffff811115620004a657600080fd5b620004b48e828f01620003e5565b99505060608c015167ffffffffffffffff811115620004d257600080fd5b620004e08e828f01620003e5565b98505060808c015167ffffffffffffffff811115620004fe57600080fd5b6200050c8e828f01620003e5565b97505060a08c015167ffffffffffffffff8111156200052a57600080fd5b620005388e828f01620003e5565b96505060c06200054b8e828f0162000412565b95505060e06200055e8e828f0162000412565b945050610100620005728e828f0162000412565b935050610120620005868e828f01620003b7565b9250506101406200059a8e828f0162000412565b9150509295989b509295989b9093969950565b6000620005bc60138362000655565b9150620005c982620007c9565b602082019050919050565b60006020820190508181036000830152620005ef81620005ad565b9050919050565b60006200060262000615565b905062000610828262000724565b919050565b6000604051905090565b600067ffffffffffffffff8211156200063d576200063c62000789565b5b6200064882620007b8565b9050602081019050919050565b600082825260208201905092915050565b600062000673826200068e565b9050919050565b6000620006878262000666565b9050919050565b600073ffffffffffffffffffffffffffffffffffffffff82169050919050565b6000819050919050565b60005b83811015620006d8578082015181840152602081019050620006bb565b83811115620006e8576000848401525b50505050565b600060028204905060018216806200070757607f821691505b602082108114156200071e576200071d6200075a565b5b50919050565b6200072f82620007b8565b810181811067ffffffffffffffff8211171562000751576200075062000789565b5b80604052505050565b7f4e487b7100000000000000000000000000000000000000000000000000000000600052602260045260246000fd5b7f4e487b7100000000000000000000000000000000000000000000000000000000600052604160045260246000fd5b6000601f19601f8301169050919050565b7f456d7074792061646d696e206164647265737300000000000000000000000000600082015250565b620007fd8162000666565b81146200080957600080fd5b50565b62000817816200067a565b81146200082357600080fd5b50565b6200083181620006ae565b81146200083d57600080fd5b50565b60805160601c6127d76200085f60003960006112b201526127d76000f3fe608060405234801561001057600080fd5b50600436106100935760003560e01c8063a69df4b511610066578063a69df4b514610104578063bcb69df91461010e578063eff88be314610118578063f643509c14610122578063fc0c546a1461013e57610093565b8063112ba062146100985780633fd3d040146100a25780635776f544146100ca57806371ed4664146100e8575b600080fd5b6100a061015c565b005b6100aa610267565b6040516100c19b9a99989796959493929190611dde565b60405180910390f35b6100d26105d3565b6040516100df9190611d86565b60405180910390f35b61010260048036038101906100fd919061198f565b6105f6565b005b61010c6108e5565b005b610116610bdc565b005b610120610e2c565b005b61013c60048036038101906101379190611a0a565b610f7e565b005b6101466112ae565b6040516101539190611da1565b60405180910390f35b600060090160009054906101000a900473ffffffffffffffffffffffffffffffffffffffff1673ffffffffffffffffffffffffffffffffffffffff163373ffffffffffffffffffffffffffffffffffffffff16148061020b5750600060080160009054906101000a900473ffffffffffffffffffffffffffffffffffffffff1673ffffffffffffffffffffffffffffffffffffffff163373ffffffffffffffffffffffffffffffffffffffff16145b61024a576040517f08c379a000000000000000000000000000000000000000000000000000000000815260040161024190611f4c565b60405180910390fd5b6001600b60006101000a81548160ff021916908315150217905550565b6060806060806060600080600080600080600080016000600101600060020160006003016000600401600060050154600060060154600060070154600060080160009054906101000a900473ffffffffffffffffffffffffffffffffffffffff16600060090160009054906101000a900473ffffffffffffffffffffffffffffffffffffffff166000600a01548a8054610300906123b0565b80601f016020809104026020016040519081016040528092919081815260200182805461032c906123b0565b80156103795780601f1061034e57610100808354040283529160200191610379565b820191906000526020600020905b81548152906001019060200180831161035c57829003601f168201915b50505050509a5089805461038c906123b0565b80601f01602080910402602001604051908101604052809291908181526020018280546103b8906123b0565b80156104055780601f106103da57610100808354040283529160200191610405565b820191906000526020600020905b8154815290600101906020018083116103e857829003601f168201915b50505050509950888054610418906123b0565b80601f0160208091040260200160405190810160405280929190818152602001828054610444906123b0565b80156104915780601f1061046657610100808354040283529160200191610491565b820191906000526020600020905b81548152906001019060200180831161047457829003601f168201915b505050505098508780546104a4906123b0565b80601f01602080910402602001604051908101604052809291908181526020018280546104d0906123b0565b801561051d5780601f106104f25761010080835404028352916020019161051d565b820191906000526020600020905b81548152906001019060200180831161050057829003601f168201915b50505050509750868054610530906123b0565b80601f016020809104026020016040519081016040528092919081815260200182805461055c906123b0565b80156105a95780601f1061057e576101008083540402835291602001916105a9565b820191906000526020600020905b81548152906001019060200180831161058c57829003601f168201915b505050505096509a509a509a509a509a509a509a509a509a509a509a50909192939495969798999a565b6000806105df336112d6565b11156105ee57600190506105f3565b600090505b90565b600060090160009054906101000a900473ffffffffffffffffffffffffffffffffffffffff1673ffffffffffffffffffffffffffffffffffffffff163373ffffffffffffffffffffffffffffffffffffffff1614806106a55750600060080160009054906101000a900473ffffffffffffffffffffffffffffffffffffffff1673ffffffffffffffffffffffffffffffffffffffff163373ffffffffffffffffffffffffffffffffffffffff16145b6106e4576040517f08c379a00000000000000000000000000000000000000000000000000000000081526004016106db90611f4c565b60405180910390fd5b60006106ee6112ae565b73ffffffffffffffffffffffffffffffffffffffff166370a08231306040518263ffffffff1660e01b81526004016107269190611d0b565b60206040518083038186803b15801561073e57600080fd5b505afa158015610752573d6000803e3d6000fd5b505050506040513d601f19601f8201168201806040525081019061077691906119e1565b90506000610783836112d6565b90508181116107c7576040517f08c379a00000000000000000000000000000000000000000000000000000000081526004016107be90611eec565b60405180910390fd5b6000811161080a576040517f08c379a000000000000000000000000000000000000000000000000000000000815260040161080190611eec565b60405180910390fd5b6108d7836108166112ae565b73ffffffffffffffffffffffffffffffffffffffff1663313ce5676040518163ffffffff1660e01b815260040160206040518083038186803b15801561085b57600080fd5b505afa15801561086f573d6000803e3d6000fd5b505050506040513d601f19601f820116820180604052508101906108939190611a5e565b600a61089f919061217d565b836108aa919061229b565b6108b26112ae565b73ffffffffffffffffffffffffffffffffffffffff1661131f9092919063ffffffff16565b6108e0836113a5565b505050565b60011515600b60019054906101000a900460ff1615151461093b576040517f08c379a000000000000000000000000000000000000000000000000000000000815260040161093290611fac565b60405180910390fd5b600060090160009054906101000a900473ffffffffffffffffffffffffffffffffffffffff1673ffffffffffffffffffffffffffffffffffffffff163373ffffffffffffffffffffffffffffffffffffffff1614806109ea5750600060080160009054906101000a900473ffffffffffffffffffffffffffffffffffffffff1673ffffffffffffffffffffffffffffffffffffffff163373ffffffffffffffffffffffffffffffffffffffff16145b610a29576040517f08c379a0000000000000000000000000000000000000000000000000000000008152600401610a2090611f6c565b60405180910390fd5b6000600601544211610a70576040517f08c379a0000000000000000000000000000000000000000000000000000000008152600401610a679061202c565b60405180910390fd5b6000610a7a6112ae565b73ffffffffffffffffffffffffffffffffffffffff166370a08231306040518263ffffffff1660e01b8152600401610ab29190611d0b565b60206040518083038186803b158015610aca57600080fd5b505afa158015610ade573d6000803e3d6000fd5b505050506040513d601f19601f82011682018060405250810190610b0291906119e1565b9050610bd133610b106112ae565b73ffffffffffffffffffffffffffffffffffffffff1663313ce5676040518163ffffffff1660e01b815260040160206040518083038186803b158015610b5557600080fd5b505afa158015610b69573d6000803e3d6000fd5b505050506040513d601f19601f82011682018060405250810190610b8d9190611a5e565b600a610b99919061217d565b83610ba4919061229b565b610bac6112ae565b73ffffffffffffffffffffffffffffffffffffffff1661131f9092919063ffffffff16565b610bd9610e2c565b50565b6000610be7336112d6565b90506000610bf36112ae565b73ffffffffffffffffffffffffffffffffffffffff166370a08231306040518263ffffffff1660e01b8152600401610c2b9190611d0b565b60206040518083038186803b158015610c4357600080fd5b505afa158015610c57573d6000803e3d6000fd5b505050506040513d601f19601f82011682018060405250810190610c7b91906119e1565b905080821115610cc0576040517f08c379a0000000000000000000000000000000000000000000000000000000008152600401610cb790611eec565b60405180910390fd5b60008211610d03576040517f08c379a0000000000000000000000000000000000000000000000000000000008152600401610cfa90611eec565b60405180910390fd5b600b60009054906101000a900460ff16610d52576040517f08c379a0000000000000000000000000000000000000000000000000000000008152600401610d4990611f4c565b60405180910390fd5b610e1f33610d5e6112ae565b73ffffffffffffffffffffffffffffffffffffffff1663313ce5676040518163ffffffff1660e01b815260040160206040518083038186803b158015610da357600080fd5b505afa158015610db7573d6000803e3d6000fd5b505050506040513d601f19601f82011682018060405250810190610ddb9190611a5e565b600a610de7919061217d565b84610df2919061229b565b610dfa6112ae565b73ffffffffffffffffffffffffffffffffffffffff1661131f9092919063ffffffff16565b610e28336113a5565b5050565b600060090160009054906101000a900473ffffffffffffffffffffffffffffffffffffffff1673ffffffffffffffffffffffffffffffffffffffff163373ffffffffffffffffffffffffffffffffffffffff161480610edb5750600060080160009054906101000a900473ffffffffffffffffffffffffffffffffffffffff1673ffffffffffffffffffffffffffffffffffffffff163373ffffffffffffffffffffffffffffffffffffffff16145b610f1a576040517f08c379a0000000000000000000000000000000000000000000000000000000008152600401610f1190611f4c565b60405180910390fd5b6000600601544211610f61576040517f08c379a0000000000000000000000000000000000000000000000000000000008152600401610f5890611fac565b60405180910390fd5b6001600b60016101000a81548160ff021916908315150217905550565b600b60009054906101000a900460ff1615610fce576040517f08c379a0000000000000000000000000000000000000000000000000000000008152600401610fc590611f8c565b60405180910390fd5b600060060154421115611016576040517f08c379a000000000000000000000000000000000000000000000000000000000815260040161100d90611ecc565b60405180910390fd5b6000600501544210158061102f57506001600060070154115b61106e576040517f08c379a000000000000000000000000000000000000000000000000000000000815260040161106590611f6c565b60405180910390fd5b60006110786112ae565b73ffffffffffffffffffffffffffffffffffffffff166370a08231336040518263ffffffff1660e01b81526004016110b09190611d0b565b60206040518083038186803b1580156110c857600080fd5b505afa1580156110dc573d6000803e3d6000fd5b505050506040513d601f19601f8201168201806040525081019061110091906119e1565b905060008311611145576040517f08c379a000000000000000000000000000000000000000000000000000000000815260040161113c90611fec565b60405180910390fd5b80831115611188576040517f08c379a000000000000000000000000000000000000000000000000000000000815260040161117f90611eac565b60405180910390fd5b6000600a015483146111cf576040517f08c379a00000000000000000000000000000000000000000000000000000000081526004016111c690611f0c565b60405180910390fd5b61129e33306111dc6112ae565b73ffffffffffffffffffffffffffffffffffffffff1663313ce5676040518163ffffffff1660e01b815260040160206040518083038186803b15801561122157600080fd5b505afa158015611235573d6000803e3d6000fd5b505050506040513d601f19601f820116820180604052508101906112599190611a5e565b600a611265919061217d565b86611270919061229b565b6112786112ae565b73ffffffffffffffffffffffffffffffffffffffff16611436909392919063ffffffff16565b6112a93384846114bf565b505050565b60007f0000000000000000000000000000000000000000000000000000000000000000905090565b6000600d60008373ffffffffffffffffffffffffffffffffffffffff1673ffffffffffffffffffffffffffffffffffffffff168152602001908152602001600020549050919050565b6113a08363a9059cbb60e01b848460405160240161133e929190611d5d565b604051602081830303815290604052907bffffffffffffffffffffffffffffffffffffffffffffffffffffffff19166020820180517bffffffffffffffffffffffffffffffffffffffffffffffffffffffff838183161783525050505061156e565b505050565b600d60008273ffffffffffffffffffffffffffffffffffffffff1673ffffffffffffffffffffffffffffffffffffffff16815260200190815260200160002060009055600c60008273ffffffffffffffffffffffffffffffffffffffff1673ffffffffffffffffffffffffffffffffffffffff168152602001908152602001600020600061143391906117db565b50565b6114b9846323b872dd60e01b85858560405160240161145793929190611d26565b604051602081830303815290604052907bffffffffffffffffffffffffffffffffffffffffffffffffffffffff19166020820180517bffffffffffffffffffffffffffffffffffffffffffffffffffffffff838183161783525050505061156e565b50505050565b81600d60008573ffffffffffffffffffffffffffffffffffffffff1673ffffffffffffffffffffffffffffffffffffffff168152602001908152602001600020600082825461150e91906120d4565b9250508190555080600c60008573ffffffffffffffffffffffffffffffffffffffff1673ffffffffffffffffffffffffffffffffffffffff168152602001908152602001600020908051906020019061156892919061181b565b50505050565b60006115d0826040518060400160405280602081526020017f5361666545524332303a206c6f772d6c6576656c2063616c6c206661696c65648152508573ffffffffffffffffffffffffffffffffffffffff166116359092919063ffffffff16565b905060008151111561163057808060200190518101906115f091906119b8565b61162f576040517f08c379a00000000000000000000000000000000000000000000000000000000081526004016116269061200c565b60405180910390fd5b5b505050565b6060611644848460008561164d565b90509392505050565b606082471015611692576040517f08c379a000000000000000000000000000000000000000000000000000000000815260040161168990611f2c565b60405180910390fd5b61169b85611761565b6116da576040517f08c379a00000000000000000000000000000000000000000000000000000000081526004016116d190611fcc565b60405180910390fd5b6000808673ffffffffffffffffffffffffffffffffffffffff1685876040516117039190611cf4565b60006040518083038185875af1925050503d8060008114611740576040519150601f19603f3d011682016040523d82523d6000602084013e611745565b606091505b5091509150611755828286611774565b92505050949350505050565b600080823b905060008111915050919050565b60608315611784578290506117d4565b6000835111156117975782518084602001fd5b816040517f08c379a00000000000000000000000000000000000000000000000000000000081526004016117cb9190611dbc565b60405180910390fd5b9392505050565b5080546117e7906123b0565b6000825580601f106117f95750611818565b601f01602090049060005260206000209081019061181791906118a1565b5b50565b828054611827906123b0565b90600052602060002090601f0160209004810192826118495760008555611890565b82601f1061186257805160ff1916838001178555611890565b82800160010185558215611890579182015b8281111561188f578251825591602001919060010190611874565b5b50905061189d91906118a1565b5090565b5b808211156118ba5760008160009055506001016118a2565b5090565b60006118d16118cc84612071565b61204c565b9050828152602081018484840111156118e957600080fd5b6118f484828561236e565b509392505050565b60008135905061190b81612745565b92915050565b6000815190506119208161275c565b92915050565b600082601f83011261193757600080fd5b81356119478482602086016118be565b91505092915050565b60008135905061195f81612773565b92915050565b60008151905061197481612773565b92915050565b6000815190506119898161278a565b92915050565b6000602082840312156119a157600080fd5b60006119af848285016118fc565b91505092915050565b6000602082840312156119ca57600080fd5b60006119d884828501611911565b91505092915050565b6000602082840312156119f357600080fd5b6000611a0184828501611965565b91505092915050565b60008060408385031215611a1d57600080fd5b6000611a2b85828601611950565b925050602083013567ffffffffffffffff811115611a4857600080fd5b611a5485828601611926565b9150509250929050565b600060208284031215611a7057600080fd5b6000611a7e8482850161197a565b91505092915050565b611a90816122f5565b82525050565b611a9f81612307565b82525050565b6000611ab0826120a2565b611aba81856120b8565b9350611aca81856020860161237d565b80840191505092915050565b611adf8161234a565b82525050565b6000611af0826120ad565b611afa81856120c3565b9350611b0a81856020860161237d565b611b13816124a0565b840191505092915050565b6000611b2b601e836120c3565b9150611b36826124be565b602082019050919050565b6000611b4e6014836120c3565b9150611b59826124e7565b602082019050919050565b6000611b716014836120c3565b9150611b7c82612510565b602082019050919050565b6000611b946028836120c3565b9150611b9f82612539565b604082019050919050565b6000611bb76026836120c3565b9150611bc282612588565b604082019050919050565b6000611bda6007836120c3565b9150611be5826125d7565b602082019050919050565b6000611bfd6007836120c3565b9150611c0882612600565b602082019050919050565b6000611c20601f836120c3565b9150611c2b82612629565b602082019050919050565b6000611c43600b836120c3565b9150611c4e82612652565b602082019050919050565b6000611c66601d836120c3565b9150611c718261267b565b602082019050919050565b6000611c89601b836120c3565b9150611c94826126a4565b602082019050919050565b6000611cac602a836120c3565b9150611cb7826126cd565b604082019050919050565b6000611ccf600b836120c3565b9150611cda8261271c565b602082019050919050565b611cee81612333565b82525050565b6000611d008284611aa5565b915081905092915050565b6000602082019050611d206000830184611a87565b92915050565b6000606082019050611d3b6000830186611a87565b611d486020830185611a87565b611d556040830184611ce5565b949350505050565b6000604082019050611d726000830185611a87565b611d7f6020830184611ce5565b9392505050565b6000602082019050611d9b6000830184611a96565b92915050565b6000602082019050611db66000830184611ad6565b92915050565b60006020820190508181036000830152611dd68184611ae5565b905092915050565b6000610160820190508181036000830152611df9818e611ae5565b90508181036020830152611e0d818d611ae5565b90508181036040830152611e21818c611ae5565b90508181036060830152611e35818b611ae5565b90508181036080830152611e49818a611ae5565b9050611e5860a0830189611ce5565b611e6560c0830188611ce5565b611e7260e0830187611ce5565b611e80610100830186611a87565b611e8e610120830185611a87565b611e9c610140830184611ce5565b9c9b505050505050505050505050565b60006020820190508181036000830152611ec581611b1e565b9050919050565b60006020820190508181036000830152611ee581611b41565b9050919050565b60006020820190508181036000830152611f0581611b64565b9050919050565b60006020820190508181036000830152611f2581611b87565b9050919050565b60006020820190508181036000830152611f4581611baa565b9050919050565b60006020820190508181036000830152611f6581611bcd565b9050919050565b60006020820190508181036000830152611f8581611bf0565b9050919050565b60006020820190508181036000830152611fa581611c13565b9050919050565b60006020820190508181036000830152611fc581611c36565b9050919050565b60006020820190508181036000830152611fe581611c59565b9050919050565b6000602082019050818103600083015261200581611c7c565b9050919050565b6000602082019050818103600083015261202581611c9f565b9050919050565b6000602082019050818103600083015261204581611cc2565b9050919050565b6000612056612067565b905061206282826123e2565b919050565b6000604051905090565b600067ffffffffffffffff82111561208c5761208b612471565b5b612095826124a0565b9050602081019050919050565b600081519050919050565b600081519050919050565b600081905092915050565b600082825260208201905092915050565b60006120df82612333565b91506120ea83612333565b9250827fffffffffffffffffffffffffffffffffffffffffffffffffffffffffffffffff0382111561211f5761211e612413565b5b828201905092915050565b6000808291508390505b6001851115612174578086048111156121505761214f612413565b5b600185161561215f5780820291505b808102905061216d856124b1565b9450612134565b94509492505050565b600061218882612333565b91506121938361233d565b92506121c07fffffffffffffffffffffffffffffffffffffffffffffffffffffffffffffffff84846121c8565b905092915050565b6000826121d85760019050612294565b816121e65760009050612294565b81600181146121fc576002811461220657612235565b6001915050612294565b60ff84111561221857612217612413565b5b8360020a91508482111561222f5761222e612413565b5b50612294565b5060208310610133831016604e8410600b841016171561226a5782820a90508381111561226557612264612413565b5b612294565b612277848484600161212a565b9250905081840481111561228e5761228d612413565b5b81810290505b9392505050565b60006122a682612333565b91506122b183612333565b9250817fffffffffffffffffffffffffffffffffffffffffffffffffffffffffffffffff04831182151516156122ea576122e9612413565b5b828202905092915050565b600061230082612313565b9050919050565b60008115159050919050565b600073ffffffffffffffffffffffffffffffffffffffff82169050919050565b6000819050919050565b600060ff82169050919050565b60006123558261235c565b9050919050565b600061236782612313565b9050919050565b82818337600083830152505050565b60005b8381101561239b578082015181840152602081019050612380565b838111156123aa576000848401525b50505050565b600060028204905060018216806123c857607f821691505b602082108114156123dc576123db612442565b5b50919050565b6123eb826124a0565b810181811067ffffffffffffffff8211171561240a57612409612471565b5b80604052505050565b7f4e487b7100000000000000000000000000000000000000000000000000000000600052601160045260246000fd5b7f4e487b7100000000000000000000000000000000000000000000000000000000600052602260045260246000fd5b7f4e487b7100000000000000000000000000000000000000000000000000000000600052604160045260246000fd5b6000601f19601f8301169050919050565b60008160011c9050919050565b7f4e6f7420656e6f75676820746f6b656e7320746f206265206c6f636b65640000600082015250565b7f5468697320436f7572736520697320656e646564000000000000000000000000600082015250565b7f4e6f20746f6b656e7320746f2072656c65617365000000000000000000000000600082015250565b7f506c65617365206c6f636b2074686520636f7272656374206e756d626572206f60008201527f6620746f6b656e73000000000000000000000000000000000000000000000000602082015250565b7f416464726573733a20696e73756666696369656e742062616c616e636520666f60008201527f722063616c6c0000000000000000000000000000000000000000000000000000602082015250565b7f6e6f206175746800000000000000000000000000000000000000000000000000600082015250565b7f4e6f206175746800000000000000000000000000000000000000000000000000600082015250565b7f54686520636f6e747261637420686173206265656e2064697363617264656400600082015250565b7f6e6f20656e642074696d65000000000000000000000000000000000000000000600082015250565b7f416464726573733a2063616c6c20746f206e6f6e2d636f6e7472616374000000600082015250565b7f596f75206e65656420746f206c6f636b20736f6d6520746f6b656e0000000000600082015250565b7f5361666545524332303a204552433230206f7065726174696f6e20646964206e60008201527f6f74207375636365656400000000000000000000000000000000000000000000602082015250565b7f4e6f20656e642074696d65000000000000000000000000000000000000000000600082015250565b61274e816122f5565b811461275957600080fd5b50565b61276581612307565b811461277057600080fd5b50565b61277c81612333565b811461278757600080fd5b50565b6127938161233d565b811461279e57600080fd5b5056fea26469706673582212207a2f816a918e4e79fbbded1efbaf13d83d715d37905bf9a58abcb61e497f04fa64736f6c63430008030033",
  "linkReferences": {},
  "deployedLinkReferences": {}
}